:100000000C9498000C94C0000C94C0000C94C00098
:100010000C94C0000C94C0000C94C0000C94C00060
:100020000C94C0000C94C0000C94C0000C94C00050
:100030000C94C0000C94C0000C94C0000C94C00040
:100040000C94C0000C94C0000C94EF100C94C000F1
:100050000C94C0000C94C0000C94C0000C94C00020
:100060000C94C0000C94C0000C94C0000C94C00010
:100070000C94C0000C94C0000C94C000750A8A0A4D
:10008000A10ACD0A160B430B8C0BDD0B160C05A831
:100090004CCDB2D44EB93836A9020C50B9918688ED
:1000A000083CA6AAAA2ABE000000803F0000000269
:1000B0000300000000000000050409080000000023
:1000C0000000000000000000000000000102040821
:1000D0001020408001020408102040800102040822
:1000E0001020408001020408102040800202020219
:1000F00002020202040404040404040403030303CC
:1001000003030303010101010101010100002000BB
:1001100023002600290000002200250028002B00D3
:1001200000002100240027002A004807940E4C07F5
:1001300011241FBECFEFD8E0DEBFCDBF11E0A0E09D
:10014000B1E0E4E4FCE202C005900D92A032B107F8
:10015000D9F725E0A0E2B1E001C01D92AE33B207AD
:10016000E1F710E0C7E9D0E004C02197FE010E944A
:10017000EE15C539D107C9F70E94E0100C94151689
:100180000C940000FC01858596850895CF93DF933C
:1001900000D000D000D0CDB7DEB7AB011C821D82ED
:1001A0001E82DC01ED91FC910190F081E02D19821D
:1001B0001A821B829E012F5F3F4FBE016C5F7F4FF3
:1001C000099526960FB6F894DEBF0FBECDBFDF911E
:1001D000CF91089580E991E00895559A0895CF93BD
:1001E000DF939C01EB01FA01CA016FE070E00E940D
:1001F00099156C9FC0016D9F900D7C9F900D1124EF
:100200008E1B9F0B97FF02C0280F391F2530310529
:100210001CF480E090E001C0C901DF91CF91089506
:1002200085EE80937A0087EC80937C0062E082E028
:100230000E94CE1161E08FE00E94CE116091020118
:100240008FE00E940A12E8EBF4E0A8E9B4E095E040
:1002500080E02FEF31E08083218322839C93191665
:100260000CF03C93895F339691501196803E99F73C
:1002700080912101811145C010922C0110922B0117
:100280008FEF80932F018093300180933101809311
:100290003201809333018093340181E080933501F2
:1002A000109237011092360110922E0110922D01FA
:1002B0008091250590912605892B31F489E291E002
:1002C0009093260580932505E0912305F091240560
:1002D000309721F089E291E09583848389E291E06F
:1002E00090932405809323051092390110923801D0
:1002F00087E091E090932A018093290181E0809327
:10030000210120E030E044E650E06CE673E089E251
:1003100091E00E94560EFC018FEF868380EB87836D
:1003200080EF808780E28093270584E090E19093BE
:1003300033058093320588E893E1A0E0B0E0809334
:100340002E0590932F05A0933005B09331050895A5
:100350002F923F924F925F926F927F928F929F92D5
:10036000AF92BF92CF92DF92EF92FF920F931F93C3
:10037000CF93DF93CDB7DEB72B970FB6F894DEBFE0
:100380000FBECDBF82E00E9439128C01019709F0A7
:100390004FC080914A0181114BC00E943911409099
:1003A0004601509047016090480170904901DC017E
:1003B000CB0184199509A609B709C397A105B10511
:1003C000B8F1809145018F5F843009F0DBC1109254
:1003D000450180914501813009F4A9C10CF09DC10E
:1003E000811117C0E8EBF4E080E09FEF80839183F8
:1003F0009283895F3396803EC9F787EC80937C00B7
:1004000082E08093010185E08093000181E0809388
:100410000201609102018FE00E940A120E943911CC
:10042000609346017093470180934801909349017E
:1004300000934A016CE6862E62E0962E0CE611E0EF
:1004400075EFF72E80917A0084FFFCCFF0927A004E
:100450006091780070917900725077FF02C0695FF7
:100460007F4F53E0759567955A95E1F7072E000C7D
:10047000880B990B0E947E13F40161937193819311
:1004800091934F01F80111921192119211928F01E3
:10049000FCE68F16F3E09F06A9F601E021E040E4B8
:1004A00050E06CE672E08AE391E00E940A0A20E4E0
:1004B00030E04CE651E06CE672E08AE391E00E94A5
:1004C000A60C20E430E04CE651E06CE672E08AE3F2
:1004D00091E00E94BC0980910101682E082E000C59
:1004E00077089301220F331F220F331FA9014459AC
:1004F0005D4F59874887F301E45BFE4FFD83EC8332
:10050000930128563B4F3F832E8393E08902A0013D
:1005100011245B874A87412C512C312C812C912C42
:10052000E0E26E1671040CF076C0E885F985619101
:10053000719181919191F987E8870E944613613505
:1005400014F060E502C067FD60E0EC81FD8160832E
:10055000062E000C770B880B990B1F921F921F928F
:1005600020E52F93A12CB12C650110E5E12EF12C93
:1005700000E010E020E030E0A9010E949E10862FEC
:10058000EC81FD816193FD83EC8340910001042E99
:10059000000C550BB301082E000C990B0E94EF00C4
:1005A00080934B018A859B85840D951DBE016F5FED
:1005B0007F4F88549B4F0E94980E498110914B01A8
:1005C000EE81FF812191FF83EE83F0E52F02900100
:1005D00011241403C0011124B9010E949915960E2B
:1005E0004A811403C0011124B9010E949915860E95
:1005F0004B811403C0011124B9010E949915360ED4
:100600002FEF621A720A33E0430E511C0F900F90C5
:100610000F900F9085CF80914501ECE6F3E082309A
:1006200009F454C08CEF93E0218520832285218337
:100630002385228333968E179F07B1F7ECE8F4E009
:100640008FEF93E0208121872181228722812387D8
:1006500033978E179F07B1F79092FF0380920004A3
:1006600030920104909202048092030430920404B8
:100670009092050480920604309207045090F6038D
:100680004090F703F090F80351107FC041107DC0F7
:10069000F1107BC0632C782C492D4093F9037092A4
:1006A000FA036092FB039092FC038092FD03309268
:1006B000FE03909208048092090430920A04409349
:1006C0000B0470920C0460920D0408C09082818229
:1006D0003282339644E0E839F407C1F76091270588
:1006E00087E295E00E94860D2B960FB6F894DEBF48
:1006F0000FBECDBFDF91CF911F910F91FF90EF9073
:10070000DF90CF90BF90AF909F908F907F906F9031
:100710005F904F903F902F9008958230A1F08330EA
:1007200009F077CEE8EBF4E080E09FEF18C0E8EB4B
:10073000F4E082ED9FEF808391839283865033961D
:100740008231C9F75ACEE8EBF4E080E09FEF808376
:1007500091839283895F3396803EC9F74ECE808322
:1007600091839283895F3396803EC9F784EC8093AE
:100770007C0088E08093010180E580930001109265
:10078000020147CE8093450124CE53E0359E80017F
:100790001124C801E7E0FE9E800D911D11242AE07E
:1007A000222E312CB1010E949915662E23E0829EE3
:1007B000F0011124CF0137E0439E800D911D1124DB
:1007C000B1010E949915762E43E0949E9001112468
:1007D000C90157E0559E800D911D1124B1010E9461
:1007E0009915462FC8018F0D911D8F0D911D05E0A4
:1007F00010E0B8010E949915362ECF01840D911D8D
:10080000840D911DB8010E949915862EC901850D90
:10081000911D850D911DB8010E949915962E3DCF11
:100820009F92AF92BF92CF92DF92EF92FF920F937F
:100830001F93CF93DF93FC01C080D1802BB1206246
:10084000B22E9BB19F7D9BB962858781062F081BC5
:10085000802F07837785A281B381358544855685AE
:1008600099249394930E4F5F5F5FF680E084C18577
:10087000D385F6011181A12C0A2D2A2D3A2D318123
:10088000112788943111380F08F43FEF819588942F
:1008900090FC130F1795889491FC130F179588946B
:1008A00092FC130F1795889493FC130F1795889457
:1008B00094FC130F1795889495FC130F1795889443
:1008C00096FC130F1795889497FC130F179588942F
:1008D000032F9110012F860F102F002CBBB800C0E2
:1008E00017FF9BB930810027889400C000C0002CFE
:1008F0009BB931113F0D00C0002CBBB800C016FFE2
:100900009BB908F43FEFF194889400C000C0002C1C
:100910009BB940FD030F00C0002CBBB800C015FF01
:100920009BB90795889441FD030F00C000C0002CBF
:100930009BB90795889400C0002CBBB800C014FF79
:100940009BB942FD030F0795889400C000C0002C9E
:100950009BB943FD030F00C0002CBBB800C013FFC0
:100960009BB90795889444FD030F00C000C0002C7C
:100970009BB90795889400C0002CBBB800C012FF3B
:100980009BB945FD030F0795889400C000C0002C5B
:100990009BB946FD030F00C0002CBBB800C011FF7F
:1009A0009BB90795889447FD030F00C000C0002C39
:1009B0009BB90795889400C0002CBBB800C010FFFD
:1009C0009BB9132F4111102FFC0E00C000C0002C4A
:1009D0009BB900C000C0002CBBB800C017FF9BB97A
:1009E00032810027889400C000C0002C9BB93111CF
:1009F0003E0D00C0002CBBB800C016FF9BB908F428
:100A00003FEFE70FF11D00C000C0002C9BB950FD67
:100A1000030F00C0002CBBB800C015FF9BB90795A1
:100A2000889451FD030F00C000C0002C9BB90795AE
:100A3000889400C0002CBBB800C014FF9BB952FDC5
:100A4000030F0795889400C000C0002C9BB953FD8C
:100A5000030F00C0002CBBB800C013FF9BB9079563
:100A6000889454FD030F00C000C0002C9BB907956B
:100A7000889400C0002CBBB800C012FF9BB955FD84
:100A8000030F0795889400C000C0002C9BB956FD49
:100A9000030F00C0002CBBB800C011FF9BB9079525
:100AA000889457FD030F00C000C0002C9BB9079528
:100AB000889400C0002CBBB800C010FF9BB9132F56
:100AC0005111102FE19400C000C0002C9BB9ED0E15
:100AD00000C000C0BBB800C017FF9BB93181002720
:100AE000889400C000C0002C9BB93111380F00C0A1
:100AF000002CBBB800C016FF9BB908F43FEF8195EE
:100B0000889400C000C0002C9BB990FC030F00C06B
:100B1000002CBBB800C015FF9BB90795889491FCC9
:100B2000030F00C000C0002C9BB90795889400C03B
:100B3000002CBBB800C014FF9BB992FC030F0795B3
:100B4000889400C000C0002C9BB993FC030F00C028
:100B5000002CBBB800C013FF9BB90795889494FC88
:100B6000030F00C000C0002C9BB90795889400C0FB
:100B7000002CBBB800C012FF9BB995FC030F079572
:100B8000889400C000C0002C9BB996FC030F00C0E5
:100B9000002CBBB800C011FF9BB90795889497FC47
:100BA000030F00C000C0002C9BB90795889400C0BB
:100BB000002CBBB800C010FF9BB9132F9110102F51
:100BC000860F00C000C0002C9BB9119709F086CE9B
:100BD000DF91CF911F910F91FF90EF90DF90CF9019
:100BE000BF90AF909F9008950F931F93CF93DF9383
:100BF000EC018B010E9445112F853889621B730B14
:100C00006A307105B8F3F894C8010E941004F80125
:100C10004281538120EE31E0DA010E94F415DC01BB
:100C2000CB01F4E0B695A79597958795FA95D1F7FE
:100C300020E030E0B901EAE94E9F040E611D5E9F9D
:100C4000600D711D1124650F711D860F971FA11D69
:100C5000B11D893EF3E09F07A105B10508F434C03A
:100C6000885E9340A109B10942E0B695A795979592
:100C700087954A95D1F747E0849F080E211D949FE0
:100C8000200D311D1124290F311D6091180570E0D0
:100C9000860F971F820F931F40913605509137059D
:100CA0006091380570913905292F3327420F531F62
:100CB000611D711D409336055093370560933805CB
:100CC000709339058093180578940E944511788BAC
:100CD0006F87DF91CF911F910F910895FC01118AC9
:100CE000108A08950F931F93CF93DF9320912001D3
:100CF0002F5F322F37703093200120FF02C020E891
:100D000001C020E031FD2064347009F02062205FD2
:100D1000FC01EC01239600E011E06485662331F0CC
:100D200070E0C8010E9499156F5F01C060E06187A3
:100D3000322F369F030E30E0311D1124311102C0D5
:100D4000168202C031503683662311F061506187EC
:100D50003196CE17DF0709F7DF91CF911F910F91E1
:100D60000895EF92FF920F931F93CF93DF93CDB728
:100D7000DEB762970FB6F894DEBF0FBECDBF8C0111
:100D80007A01F901DC011C968C917A8369835C837A
:100D90004B835E834D8390819D8791819E87928155
:100DA0009F87813029F4CE0101960E94720606C009
:100DB0001C861B861A86198618861F8283E0888BFC
:100DC000B701CE0101960E946E06D801ED91FC910B
:100DD0000484F585E02DBE016F5F7F4FC801099542
:100DE00062960FB6F894DEBF0FBECDBFDF91CF91F4
:100DF0001F910F91FF90EF900895EF92FF920F9344
:100E00001F93CF93DF93CDB7DEB762970FB6F894F9
:100E1000DEBF0FBECDBF8C017A01F901DC011C964B
:100E20008C917A8369835C834B835E834D8390814D
:100E30009D8791819E8792819F87813029F4CE0181
:100E400001960E94720606C01C861B861A861986A9
:100E500018861F82188AB701CE0101960E946E067D
:100E6000D801ED91FC910484F585E02DBE016F5F02
:100E70007F4FC801099562960FB6F894DEBF0FBE8A
:100E8000CDBFDF91CF911F910F91FF90EF9008950B
:100E90008AE391E00C9450078AE391E00C945107A7
:100EA000089508952F923F924F925F926F927F9292
:100EB0008F929F92AF92BF92CF92DF92EF92FF926A
:100EC0000F931F93CF93DF93CDB7DEB7E1970FB6A4
:100ED000F894DEBF0FBECDBF7A8B698B5C8B4B8BDA
:100EE00019010FA7ECA2B901769567955D8F4C8F1C
:100EF000E988FA88FBA2EAA22701DA0140E050E083
:100F000080E090E08901015011094017510780F0FD
:100F1000198E21E030E038872F831B821C821D82CE
:100F20001E82412C512CA0E86A2EAFEB7A2E83C092
:100F300048175907B8F59C01220F331F220F331FA2
:100F400069887A88620E731EF201C080D180E280C7
:100F5000F380F30180809180A280B380F2018082CF
:100F60009182A282B382F301C082D182E282F382B3
:100F7000ECA0E11017C0EB89FC892E0F3F1FCD902C
:100F8000DD90ED90FC901397F90180809180A28014
:100F9000B3808D929D92AD92BC921397C082D18204
:100FA000E282F3829B018217930728F0821B930B46
:100FB00036952795F8CF820F931F4F5F5F4F14969A
:100FC000F4E04F0E511CA1CFA301920160E070E04C
:100FD00080E89FE30E94621220E030E040E05FE39F
:100FE0000E9472140E94E5146B837C838D839E8320
:100FF000FCA1F13039F4DC01CB01B0588B839C8328
:10100000AD83BE8320E030E040E85FE3C301B2017E
:101010000E94631220E030E040E05FE30E9472141F
:101020000E94E5142B013C01998D9F5F998FEDA0E3
:10103000FEA0F886EF82E98CFFA4EF1409F445C105
:10104000EF80F884EE0CFF1CFEA2EDA2EF80F88486
:1010500093E0EE0CFF1C9A95E1F7F8A6EFA2EF8063
:10106000F884EE0CFF1CEE0CFF1CFAA6E9A62B89F7
:101070003C8939A328A389899A899F8F8E8F1986E5
:101080001A861B861C8610E000E090E89D87AFE37F
:10109000AE87188A1F86EF84F8882F813885E2167C
:1010A000F30609F491CFE8A0F9A0F9AAE8AAEE8C1A
:1010B000FF8CFA82E982EF84F888FB8EEA8EEA8C54
:1010C000FB8CE214F30408F0B2C0E980FA8029A591
:1010D0003AA5E20EF31EFCA6EBA6D7018D909D90DB
:1010E000AD90BC90E8A8F9A82E0D3F1D3EA72DA7F6
:1010F000D9018D919D910D90BC91A02D8D8B9E8BD2
:10110000AF8BB88FA5019401612F702F8D859E85BF
:101110000E9472146B017C012D893E894F89588D84
:1011200069857A858B859C850E9472149B01AC0130
:10113000C701B6010E9462126B017C012D893E89B4
:101140004F89588D612F702F8D859E850E94721456
:101150006D8B7E8B8F8B988FA501940169857A8525
:101160008B859C850E9472149B01AC016D897E89E0
:101170008F89988D0E9463124B015C01A701960133
:10118000E981FA8160817181828193810E9462127A
:10119000ABA5BCA56D937D938D939C931397A501EF
:1011A0009401E8A9F9A960817181828193810E94EB
:1011B0006212ADA5BEA56D937D938D939C931397FD
:1011C000A7019601E981FA81608171818281938111
:1011D0000E946312A981BA816D937D938D939C9334
:1011E0001397A5019401E8A9F9A960817181828111
:1011F00093810E946312A8A9B9A96D937D938D93E1
:101200009C931397EA8CFB8C2DA13EA1E20EF31E5A
:10121000FB8EEA8EE980FA802FA138A5E20EF31E3C
:10122000FA82E982A20FB31FB9ABA8AB48CF212F36
:10123000302F4D855E85C301B2010E9472146B018F
:101240007C0129853A854B855C856B817C818D810C
:101250009E810E9472149B01AC01C701B6010E94DD
:101260006212D62EE72EF82EC92E29853A854B8597
:101270005C85C301B2010E9472144B015C01212FF5
:10128000302F4D855E856B817C818D819E810E9492
:101290007214A50194010E94631269877A878B8773
:1012A0009C878F8598890196988B8F87AE8DBF8D8F
:1012B0001496BF8FAE8FE8A1F9A13496F9A3E8A3E5
:1012C0001D2D0E2DFD86CE86E6CE2CA12130D9F126
:1012D0001A8219824101A12CB12CE980FA80E21412
:1012E000F30489F1C501B4010E947C136B017C01F8
:1012F0009B01AC01AAA1BBA16D917D918D919C91A7
:101300000E94D412EAA1FBA16193719381939193FE
:10131000FBA3EAA3A7019601AC8DBD8D6D917D91D4
:101320008D919C910E94D412EC8DFD8D61937193EF
:1013300081939193FD8FEC8F29813A812F5F3F4FED
:101340003A832983CACFE1960FB6F894DEBF0FBE69
:10135000CDBFDF91CF911F910F91FF90EF90DF9064
:10136000CF90BF90AF909F908F907F906F905F9045
:101370004F903F902F9008954F925F926F927F927F
:101380008F929F92AF92BF92CF92DF92EF92FF9295
:101390000F931F93CF93DF9359014A01EB0100E0B4
:1013A00010E00A151B0529F1688179818A819B81EA
:1013B000F401C190D190E190F1904F019B01AC01FB
:1013C0000E9472142B013C01A7019601C701B601CE
:1013D0000E9472149B01AC01C301B2010E9463120E
:1013E0000E94E51469937993899399930F5F1F4F36
:1013F000D8CFDF91CF911F910F91FF90EF90DF90A9
:10140000CF90BF90AF909F908F907F906F905F90A4
:101410004F9008952F923F924F925F926F927F92DA
:101420008F929F92AF92BF92CF92DF92EF92FF92F4
:101430000F931F93CF93DF93CDB7DEB72D970FB6E2
:10144000F894DEBF0FBECDBFD62EE72E1A01F22EC6
:101450000F83BA0180E090E00E947C1320E030E02E
:1014600040E85FE30E94621269837A838B839C83E6
:10147000C101969587959E838D83DC86ED8691E0EC
:10148000291A90EC390A220C331C220C331CAC852F
:10149000BD852A0E3B1E00E010E08F2D90E0A0E0FD
:1014A000B0E088879987AA87BB87AD81BE810A177C
:1014B0001B0709F425C2B80180E090E00E947C136C
:1014C0004B015C0129813A814B815C810E94D412DD
:1014D0006B017C01E885F9853197E930F10508F069
:1014E000C8C1E25CFF4F0C94EE152BED3FE049ECD8
:1014F00050E40E9472140E94CF122FE135E84BEEA7
:101500005EE30E9472149B01AC0161E77DE38AE017
:101510009FE3ACC12BED3FE049EC50E40E94721414
:101520000E94CF129B01AC0160E070E080E89FE375
:101530000E94621221E73DE34AE05FE30E947214D9
:1015400072C120E030E040E05FE369817A818B8105
:101550009C810E9472149B01AC01C501B4010E94E0
:1015600062126B017C0120E030E0A9010E946D1441
:1015700018162CF4A7019601C701B60105C0C701D2
:10158000B60190589B01AC010E94631229813A81F7
:101590004B815C810E94D41263C12BED3FE049EC8A
:1015A00050E40E9472140E94CF122B013C012BEDDB
:1015B0003FE049E451E4C701B6010E9472140E9461
:1015C000CF124B015C0124EE3BEC46E951E4C7012C
:1015D000B6010E9472140E94CF126B017C0128EFA9
:1015E0003BE849EF5EE3C301B2010E9472149B0124
:1015F000AC0169E377E286EB9EE30E9462122B0165
:101600003C012EE831EB43E15EE3C501B4010E94E9
:1016100072149B01AC01C301B2010E9463124B0121
:101620005C0122E031E84EE45CE3BEC02BED3FE01C
:1016300049EC50E40E9472140E94CF124B015C01ED
:101640002BED3FE049E451E4C701B6010E9472145A
:101650000E94CF126B017C0120EE3EEB4EEF5EE369
:10166000C501B4010E9472149B01AC016AE971EBDF
:1016700088ED9EE30E9462124B015C0128E13EE38B
:1016800042EA5DE3C6C02BED3FE049EC50E40E9426
:1016900072140E94CF122B013C012BED3FE049E474
:1016A00051E4C701B6010E9472140E94CF124B018F
:1016B0005C0124EE3BEC46E951E4C701B6010E940F
:1016C00072140E94CF126B017C0129E735E74AEFC3
:1016D0005EE3C301B2010E9472149B01AC0168E693
:1016E00077E28AEB9EE30E9462122B013C012DEB14
:1016F00030EE4BE05EE3C501B4010E9472149B0121
:10170000AC01C301B2010E9463124B015C0122E0F3
:1017100038E54EE25CE348C02BED3FE049EC50E495
:101720000E9472140E94CF122B013C012BED3FE06E
:1017300049E451E4C701B6010E9472140E94CF121D
:101740004B015C0124EE3BEC46E951E4C701B601D4
:101750000E9472140E94CF126B017C0126E231E0DC
:101760004AEF5EE3C301B2010E9472149B01AC0117
:1017700064E17EEA87EB9EE30E9462122B013C014A
:1017800024EB3BEA40E15EE3C501B4010E94721420
:101790009B01AC01C301B2010E9463124B015C01C9
:1017A00029E73DE54FE35CE3C701B6010E947214EF
:1017B0009B01AC01C501B40159C02BED3FE049ECE0
:1017C00050E40E9472140E94CF124B015C012BED79
:1017D0003FE049E451E4C701B6010E9472140E943F
:1017E000CF126B017C0125E839E545E05FE3C501D7
:1017F000B4010E9472149B01AC016CE977EE8FE892
:101800009EE30E9462124B015C0129EF3AEC4AE42C
:101810005EE3C701B6010E9472149B01AC01C501D1
:10182000B4010E9463126B017C0129C020E030E00A
:1018300040E05FE369817A818B819C810E94721410
:101840006B017C019B01AC01C501B4010E946212D5
:10185000A70196010E94D4129B01AC010E94721450
:101860009B01AC0160E070E080E89FE30E9462129F
:10187000DACFC12CD12C80E8E82E8FE3F82EBF817F
:10188000A7019601EC85FD8560817181828193813C
:10189000B13099F40E947214AC85BD856D937D932F
:1018A0008D939C931397A7019601F101608171813B
:1018B000828193810E94721412C00E94D412AC855E
:1018C000BD856D937D938D939C931397A70196018E
:1018D000F10160817181828193810E94D412D101D2
:1018E0006D937D938D939C9313970F5F1F4FEC85A2
:1018F000FD853496FD87EC87F4E02F1A3108D5CDAD
:101900002D960FB6F894DEBF0FBECDBFDF91CF91FD
:101910001F910F91FF90EF90DF90CF90BF90AF900D
:101920009F908F907F906F905F904F903F902F90FF
:10193000089580E09B01082E02C0369527950A94F1
:10194000E2F720FD02C08F5FF5CF08958F929F923E
:10195000AF92BF92CF92DF92EF920F93CF93DF932C
:10196000EC015B014A016901B9010E94990CE02E6A
:10197000082F9601A401B501CE010E945207DF9104
:10198000CF910F91EF90DF90CF90BF90AF909F904D
:101990008F9008958F929F92AF92BF92CF92DF92D5
:1019A000EF92FF920F931F93CF93DF93EC01188276
:1019B00019821A826623C1F1FA0189017C016A0148
:1019C00083E0C80ED11C862E912CA12CB12C219124
:1019D000222311F1D8016C916623F1F0822F90E05F
:1019E000A0E0B0E09C01AD012F5F3F4F4F4F5F4F34
:1019F000862F90E0A0E0B0E0BC01CD016F5F7F4F8B
:101A00008F4F9F4F0E9475159B01AC01C501B4011A
:101A10000E947515D7018C930F5F1F4FBFEFEB1A14
:101A2000FB0AEC15FD0599F6CE01DF91CF911F91D0
:101A30000F91FF90EF90DF90CF90BF90AF909F906D
:101A40008F900895FC018FEF80831282118214869B
:101A500013868FEF9FEFDC0187839087A187B28782
:101A60000895CF92DF92EF92FF920F931F93CF933F
:101A7000DF9320911D0530911E05A9014F5F5F4F37
:101A800050931E0540931D0526173707B4F1EC014E
:101A90000E9439118B019C01E0911D05F0911E05FA
:101AA00088EE93E0E89FB001E99F700DF89F700DFC
:101AB0001124072E000C880B990BC0901905D090AB
:101AC0001A05E0901B05F0901C05A90198012C193E
:101AD0003D094E095F090E94AD153A832983109292
:101AE0001E0510921D050E9439116093190570930F
:101AF0001A0580931B0590931C05DF91CF911F91D0
:101B00000F91FF90EF90DF90CF900895AF92BF922A
:101B1000CF92DF92EF92FF920F931F93CF93DF93B9
:101B200000D01F92CDB7DEB77C01D62EF70183819E
:101B30009481A581B681892B8A2B8B2BD1F00E94B1
:101B4000451100911F05109120052091210530912C
:101B50002205DC01CB01801B910BA20BB30BF7011B
:101B6000038114812581368180179107A207B3076D
:101B7000E8F20E94451160931F0570932005809341
:101B8000210590932205D7011B96ED91FC911C979E
:101B9000309751F0D70117964D915D916D917C91E1
:101BA0001A978D2D0995D82E00912505109126059F
:101BB0000115110579F1F801C484D70111968D91B1
:101BC0009C9112978436910508F41486D801ED9102
:101BD000FC91A280B3809801275F3F4FA8014A5F24
:101BE0005F4F6D2DCE0101960E94CA0CF80145850C
:101BF0005685628173819E012F5F3F4FC801F501B9
:101C00000995D8011C96CC921C9714960D911C91A5
:101C10001597CECF69E170E0C7010E94310D0F909A
:101C20000F900F90DF91CF911F910F91FF90EF9048
:101C3000DF90CF90BF90AF900895CF93DF93EC01EA
:101C40004423E1F06115710571F19B0140E050E022
:101C500060E472E48FE090E00E94CF158B819C815C
:101C6000AD81BE8182179307A407B50710F4DA018E
:101C7000C9018B839C83AD83BE8315C0611571053B
:101C800071F09B0140E050E060E472E48FE090E08E
:101C90000E94CF152B833C834D835E8304C01B823F
:101CA0001C821D821E82DF91CF910895CF92DF9218
:101CB000EF92FF920F931F93CF93DF938C016B01F1
:101CC000EA017901121613061CF07A01C0E0D0E097
:101CD000D801ED91FC910480F581E02DC8010995B2
:101CE000CE01880F991FC80FD91FCC0DDD1DF8013B
:101CF000D383C283F686E5860190F081E02D0284CD
:101D0000F385E02DC801099541E0BC0187E295E02B
:101D10000E941D0EC801DF91CF911F910F91FF907E
:101D2000EF90DF90CF90089587E295E00C94220D1C
:101D30001F93DC01FB017C9111964C911197129637
:101D40001C91972F9F71990F990F990F35E5292FA6
:101D5000239F020E20E0211D1124822F672F607423
:101D6000572F507277FD1FC061110AC0511103C077
:101D7000922F909511C025E5280F90E08BEA34C092
:101D800051110DC0392F2AEA329F030E30E0311D68
:101D900011249BEA931B280F892F90E025C090E027
:101DA0002095982F0FC0611112C051110DC0392F0D
:101DB0002AEA329F030E30E0311D11242BEA231B47
:101DC00095E5930F80E010C0922F90950CC05111B3
:101DD00004C025E5280F9BEA04C02AEA280F90E0FA
:101DE000932F981B822F20E04F3F09F427C04423F4
:101DF00011F1882331F0382F349F030E30E0311D6C
:101E0000832F222321F0249F020E20E0211D9923FD
:101E100031F0392F349F030E30E0311D932F112400
:101E2000342F3095339F030E30E0311D1124830F82
:101E3000230F930F03C09FEF2FEF8FEF1F3F09F486
:101E400024C030E0112321F0119F312D09F03F5FB4
:101E50003323C1F0882331F0482F439F040E40E024
:101E6000411D842F222321F0239F020E20E0211DFB
:101E7000992331F0492F439F040E40E0411D942FD8
:101E8000112403C090E020E080E0808321839283CE
:101E90001F910895FC0196810280F381E02D8081DD
:101EA000892B80830895FC0186810280F381E02DD7
:101EB00090818095892380830895FC01A281B3815C
:101EC0008C9196812681982381E0921380E0089579
:101ED000DC0117962C91179730E0F901E453FF4F7E
:101EE000E4911696EC93169724513F4FF901849193
:101EF000E82FF0E0EE0FFF1FEA5EFE4F8591949110
:101F000013969C938E931297F9012491E22FF0E09F
:101F1000EE0FFF1FE45FFE4F8591949115969C9301
:101F20008E93149708954F925F926F927F928F9243
:101F30009F92AF92BF92CF92DF92EF92FF92FB01FE
:101F4000DC01CB01412C512C3201C12CD12C76016A
:101F500020E030E0A9010097B1F06C91260F311D0F
:101F6000411D511D11966C911197C60ED11CE11C9B
:101F7000F11C12966C911297460E511C611C711C3B
:101F800001971396E8CFA0E5B0E00E94FB154B0146
:101F90005C01A7E3B0E0A70196010E94FB156B016D
:101FA0007C01ABE4B0E0A30192010E94FB15892CF7
:101FB0009A2CAB2CBB24CD2CDE2CEF2CFF24C80C90
:101FC000D91CEA1CFB1C45E04E9F90014F9F300D31
:101FD0001124C20ED31EE11CF11CBB27A92F982F80
:101FE000872FBC01CD016C0D7D1D8E1D9F1DFF90A7
:101FF000EF90DF90CF90BF90AF909F908F907F90A9
:102000006F905F904F9008954F925F926F927F9282
:102010008F929F92AF92BF92CF92DF92EF92FF92F8
:102020000F931F93CF93DF93CDB7DEB728970FB6EB
:10203000F894DEBF0FBECDBF182F2A013B01E09000
:102040002505F09026053DE7832E912CA12CB12C7F
:10205000E114F104C1F0D701ED91FC910084F18508
:10206000E02DC7010995BC01F701828193810E948F
:10207000930F860E971EA81EB91ED7011496ED90D9
:10208000FC901597E5CFC12ED12CE12CF12CA501A8
:102090009401C701B6010E947515872E982EA92EAE
:1020A000BB240091340584149504A604B70490F46D
:1020B000002361F189E191E09A8389830887CE0149
:1020C00001960E94680F8F81EB81FC819081809541
:1020D00089231BC0A7019601C301B2010E94751597
:1020E000A50194010E94AD15122F002379F089E11A
:1020F00091E09A8389830887CE0101960E94680F38
:102100009F81EB81FC818081892B8083812F2896A0
:102110000FB6F894DEBF0FBECDBFDF91CF911F91F8
:102120000F91FF90EF90DF90CF90BF90AF909F9076
:102130008F907F906F905F904F9008954F925F9235
:102140006F927F92AF92BF92CF92DF92EF92FF9207
:102150000F931F93CF93DF93CDB7DEB729013A01D9
:102160009B01AC01241935094609570989899A89C7
:10217000AB89BC89BC01CD016A197B098C099D0919
:102180000E947515A80197012419350946095709B8
:102190000E94CF15CA01B9016A0D7B1D8C1D9D1DC2
:1021A000DF91CF911F910F91FF90EF90DF90CF9033
:1021B000BF90AF907F906F905F904F90089508957B
:1021C0000E946A110E94DF100E941001C0E0D0E05E
:1021D0000E94A8012097E1F30E940000F9CF1F920E
:1021E0000F920FB60F9211242F933F938F939F93CB
:1021F000AF93BF938091360590913705A091380534
:10220000B09139053091350523E0230F2D3720F4A7
:102210000196A11DB11D05C026E8230F0296A11D40
:10222000B11D209335058093360590933705A09313
:102230003805B093390580913A0590913B05A091FE
:102240003C05B0913D050196A11DB11D80933A0555
:1022500090933B05A0933C05B0933D05BF91AF9192
:102260009F918F913F912F910F900FBE0F901F90D4
:1022700018952FB7F89460913605709137058091C5
:102280003805909139052FBF08953FB7F894809194
:102290003A0590913B05A0913C05B0913D0526B5CE
:1022A000A89B05C02F3F19F00196A11DB11D3FBF8E
:1022B000BA2FA92F982F8827820F911DA11DB11D1C
:1022C000BC01CD0142E0660F771F881F991F4A9518
:1022D000D1F70895789484B5826084BD84B5816017
:1022E00084BD85B5826085BD85B5816085BDEEE61E
:1022F000F0E0808181608083E1E8F0E010828081FD
:1023000082608083808181608083E0E8F0E080816A
:1023100081608083E1EBF0E0808184608083E0EB8A
:10232000F0E0808181608083EAE7F0E08081846072
:1023300080838081826080838081816080838081CE
:10234000806880831092C1000895843081F028F461
:10235000823099F08330A1F008958830A9F0893057
:10236000B9F08530D1F4809180008F7D03C08091D9
:1023700080008F7780938000089584B58F7702C0A6
:1023800084B58F7D84BD08958091B0008F7703C0A0
:102390008091B0008F7D8093B0000895CF93DF933C
:1023A00090E0FC01E453FF4F2491FC01E451FF4F06
:1023B0008491882361F190E0880F991FFC01E05E11
:1023C000FE4FC591D491FC01EA5EFE4FA591B491F8
:1023D000611109C09FB7F894888120958223888372
:1023E000EC912E230BC0623061F49FB7F894888182
:1023F000322F309583238883EC912E2B2C939FBF13
:1024000006C08FB7F894E8812E2B28838FBFDF9109
:10241000CF9108951F93CF93DF93282F30E0F901D8
:10242000E455FF4F8491F901E453FF4FD491F90132
:10243000E451FF4FC491CC23C1F0162F81110E94AB
:10244000A511EC2FF0E0EE0FFF1FEA5EFE4FA59105
:10245000B4919FB7F894111104C08C91D095D823F2
:1024600002C0EC91DE2BDC939FBFDF91CF911F91D7
:102470000895CF93DF93282F30E0F901E455FF4F03
:102480008491F901E453FF4FD491F901E451FF4FD6
:10249000C491CC2391F081110E94A511EC2FF0E0A2
:1024A000EE0FFF1FE45FFE4FA591B491EC91ED2379
:1024B00081E090E021F480E002C080E090E0DF91D4
:1024C000CF9108955058BB27AA270E947A120C94E6
:1024D0001F140E94E61338F00E94ED1320F039F427
:1024E0009F3F19F426F40C94E3130EF4E095E7FBF8
:1024F0000C94DD13E92F0E94441458F3BA176207B5
:1025000073078407950720F079F4A6F50C946614F8
:102510000EF4E0950B2EBA2FA02D0B01B9019001FE
:102520000C01CA01A0011124FF27591B99F0593F42
:1025300050F4503E68F11A16F040A22F232F342F8A
:102540004427585FF3CF469537952795A795F040D8
:102550005395C9F77EF41F16BA0B620B730B840BED
:10256000BAF09150A1F0FF0FBB1F661F771F881FA5
:10257000C2F70EC0BA0F621F731F841F48F48795FD
:1025800077956795B795F7959E3F08F0B0CF9395EF
:10259000880F08F09927EE0F9795879508950E9468
:1025A000F613E3950C9430140E94E8120C941F1457
:1025B0000E94ED1358F00E94E61340F029F45F3FAB
:1025C00029F00C94DD1351110C9467140C94E3134F
:1025D0000E94441468F39923B1F3552391F3951B9A
:1025E000550BBB27AA2762177307840738F09F5F34
:1025F0005F4F220F331F441FAA1FA9F335D00E2EA1
:102600003AF0E0E832D091505040E695001CCAF70D
:102610002BD0FE2F29D0660F771F881FBB1F2617D0
:1026200037074807AB07B0E809F0BB0B802DBF01A7
:10263000FF2793585F4F3AF09E3F510578F00C9476
:10264000DD130C9467145F3FE4F3983ED4F3869552
:1026500077956795B795F7959F5FC9F7880F911D97
:102660009695879597F90895E1E0660F771F881F83
:10267000BB1F621773078407BA0720F0621B730B36
:10268000840BBA0BEE1F88F7E09508950E944D1356
:102690006894B1110C94671408950E944C1488F04A
:1026A0009F5798F0B92F9927B751B0F0E1F0660F16
:1026B000771F881F991F1AF0BA95C9F714C0B13057
:1026C00091F00E946614B1E008950C946614672F8F
:1026D000782F8827B85F39F0B93FCCF38695779586
:1026E0006795B395D9F73EF490958095709561956F
:1026F0007F4F8F4F9F4F0895E89409C097FB3EF49A
:1027000090958095709561957F4F8F4F9F4F99233E
:10271000A9F0F92F96E9BB279395F69587957795BC
:102720006795B795F111F8CFFAF4BB0F11F460FF7C
:102730001BC06F5F7F4F8F4F9F4F16C0882311F0D4
:1027400096E911C0772321F09EE8872F762F05C0E8
:10275000662371F096E8862F70E060E02AF09A9583
:10276000660F771F881FDAF7880F9695879597F978
:102770000895990F0008550FAA0BE0E8FEEF161612
:102780001706E807F907C0F012161306E407F50765
:1027900098F0621B730B840B950B39F40A2661F0D9
:1027A000232B242B252B21F408950A2609F4A1407C
:1027B000A6958FEF811D811D089597F99F6780E889
:1027C00070E060E008959FEF80EC089500240A9483
:1027D0001616170618060906089500240A941216FC
:1027E00013061406050608950C94E3130E944C1476
:1027F000D8F3E894E0E0BB279F57F0F02AED3FE0E4
:1028000049EC06C0EE0FBB0F661F771F881F28F02C
:10281000B23A62077307840728F0B25A620B730B4F
:10282000840BE3959A9572F7803830F49A95BB0F34
:10283000661F771F881FD2F790480C942715092E22
:102840000394000C11F4882352F0BB0F40F4BF2B0B
:1028500011F460FF04C06F5F7F4F8F4F9F4F08954B
:10286000EF93E0FF07C0A2EA2AED3FE049EC5FEBFF
:102870000E947A120E941F140F90039401FC90583A
:10288000EEE8F0E00C94611557FD9058440F551F89
:1028900059F05F3F71F04795880F97FB991F61F0E2
:1028A0009F3F79F087950895121613061406551F59
:1028B000F2CF4695F1DF08C0161617061806991FC5
:1028C000F1CF86957105610508940895E894BB27BA
:1028D00066277727CB0197F908950E94B91308F46A
:1028E0008FEF08950E9485140C941F140E94E61324
:1028F00038F00E94ED1320F0952311F00C94DD13B5
:102900000C94E31311240C9467140E94441470F384
:10291000959FC1F3950F50E0551F629FF001729F84
:10292000BB27F00DB11D639FAA27F00DB11DAA1F93
:10293000649F6627B00DA11D661F829F2227B00DE0
:10294000A11D621F739FB00DA11D621F839FA00D6B
:10295000611D221F749F3327A00D611D231F849FBB
:10296000600D211D822F762F6A2F11249F57504012
:102970009AF0F1F088234AF0EE0FFF1FBB1F661F8D
:10298000771F881F91505040A9F79E3F510580F056
:102990000C94DD130C9467145F3FE4F3983ED4F37A
:1029A000869577956795B795F795E7959F5FC1F7FA
:1029B000FE2B880F911D9695879597F9089519F428
:1029C00016F40C94E3130C9425150E944C14B8F3E0
:1029D0009923C9F3B6F39F57550B87FF0E94331510
:1029E0000024A0E640EA900180585695979528F477
:1029F000805C660F771F881F20F02617370748076F
:102A000030F4621B730B840B202931294A2BA695C5
:102A100017940794202531254A2758F7660F771F0A
:102A2000881F20F026173707480730F4620B730B16
:102A3000840B200D311D411DA09581F7B901842F14
:102A40009158880F9695879508959F3F31F0915042
:102A500020F4879577956795B795880F911D969582
:102A6000879597F9089591505040660F771F881FFA
:102A7000D2F70895DF93CF931F930F93FF92EF92B6
:102A8000DF927B018C01689406C0DA2EEF010E9470
:102A90008514FE01E894A5912591359145915591B4
:102AA000A6F3EF010E947A12FE019701A801DA94C1
:102AB00069F7DF90EF90FF900F911F91CF91DF9119
:102AC00008959F938F937F936F93FF93EF939B0151
:102AD000AC010E947214EF91FF910E943A152F9160
:102AE0003F914F915F910C947214DB018F939F93F0
:102AF0000E94FB15BF91AF91A29F800D911DA39FD6
:102B0000900DB29F900D11240895AA1BBB1B51E19B
:102B100007C0AA1FBB1FA617B70710F0A61BB70B4D
:102B2000881F991F5A95A9F780959095BC01CD01F2
:102B3000089597FB072E16F4009407D077FD09D06F
:102B40000E94851507FC05D03EF4909581959F4F16
:102B50000895709561957F4F0895A1E21A2EAA1BE2
:102B6000BB1BFD010DC0AA1FBB1FEE1FFF1FA2173D
:102B7000B307E407F50720F0A21BB30BE40BF50B3A
:102B8000661F771F881F991F1A9469F760957095C3
:102B9000809590959B01AC01BD01CF010895052E54
:102BA00097FB1EF400940E94E61557FD07D00E9483
:102BB000AD1507FC03D04EF40C94E61550954095E6
:102BC000309521953F4F4F4F5F4F089590958095D9
:102BD000709561957F4F8F4F9F4F0895EE0FFF1FA8
:102BE0000590F491E02D09940E940616B7FF089510
:102BF000821B930B08950E940616A59F900DB49F0B
:102C0000900DA49F800D911D11240895A29FB001E5
:102C1000B39FC001A39F700D811D1124911DB29F10
:102C2000700D811D1124911D089510E0C7E9D0E0B9
:102C300004C0FE010E94EE152196C839D107C9F7DC
:042C4000F894FFCF36
:102C440005020100000000FD06B106ED00C600C249
:102C540000EA00F405000000004A0F530F5D0F0066
:00000001FF
